:10100000F8DA032001110000F7A300008922010093
:10101000F7A30000F7A30000F7A300000000000002
:10102000000000000000000000000000F7A3000026
:10103000F7A3000000000000F7A30000F7A30000E2
:10104000F7A30000F7A30000F7A30000F7A3000038
:10105000F7A30000F7A30000F7A30000F7A3000028
:1010600055B90000F7A30000F7A30000F7A30000A4
:10107000F7A30000F7A30000F7A30000F7A3000008
:10108000F7A30000F7A30000F7A30000F7A30000F8
:10109000F7A30000F7A30000F7A30000F7A30000E8
:1010A000F7A30000F7A30000F7A30000F7A30000D8
:1010B000F7A30000F7A300000000000000000000FC
:1010C000F7A30000F7A30000F7A30000F7A30000B8
:1010D000F7A30000F7A30000F7A30000616B000076
:1010E000697F0000F7A30000F7A3000000000000E4
:1010F00000000000F7A3000000000000F7A30000BC
:1011000009F07CF90E480F490022814201D004C049
:10111000FBE70D480D490E4A814202D008CA08C0BB
:10112000FAE70C484FF47001026842EA01020260DB
:10113000BFF34F8FBFF36F8F07F07DFA00DE000023
:1011400018EE032058F70320F8DA032018EE0320E6
:101150006868010088ED00E0F0B503AF2DE90007F5
:1011600088B006680D463068012811D1D5E900A481
:1011700042F29C21D4F80C90C0F2010104225046A6
:10118000C84798B10126304608B0BDE80007F0BD59
:1011900042F2A421D5E90002D368C0F20101042281
:1011A00008B0BDE80007BDE8F0401847A87A06F18E
:1011B0000408000614D443F2E1715046C0F2010164
:1011C00001220126C8470028DDD14046294603F008
:1011D00035FB0028D7D1D5E900A0D0F80C902DE040
:1011E00043F2E2715046C0F201010222C8470126D3
:1011F0000028C8D1A7F1290043F2BC72C0F2010255
:1012000007F8296CCDE90140D5E90201CDE90601D5
:1012100004A905926A464046CDF800A0049203F066
:101220000DFB0028AFD1DDE904010222CB6843F2B7
:10123000DC71C0F2010198470028A4D145F6744141
:101240005046C0F201010122C84706469BE7F0B5AF
:1012500003AF4DF8048D82B04C688046A01836D29A
:10126000B0F5006F07D940F22D00C0F2000009F080
:1012700040F907201AE00D460968A0EB040C164659
:101280000A1919466846634600F0B2F99DF8000055
:1012900010B19DF8010009E0B868B0420FD940F2E2
:1012A0002E00C0F2000009F024F9022088F80100A5
:1012B000012088F8000002B05DF8048BF0BD211811
:1012C0000BD2019A6960C8E901020020F1E742F2FD
:1012D0001030C0F2010009F006F842F22030C0F2EE
:1012E000010009F000F8F0B503AF2DE9000F83B05D
:1012F0008D688046A81880F0AB80B0F5006F04D9E7
:1013000040F22B00C0F2000081E08A460968401BD1
:101310000190481942F294216E4691460090C0F225
:101320000101304604221C46D7F808B010F08AF8B4
:101330000C20A7F11E0127F81E0C3046022210F0E7
:1013400081F8A7F11E013046022227F81E4C10F04A
:1013500079F81C2010FA8BF04FF01C0B81B28142FF
:101360007CD16C46A7F11E0127F81E0C20460222F4
:1013700010F068F80C20A7F11E0127F81E0C20467B
:10138000022210F05FF842F298212046C0F20101DB
:10139000042210F057F81020A7F11E0127F81E0CA8
:1013A0002046022210F04EF8A7F11E01002620462A
:1013B000022227F81E6C10F045F8A7F11E01204606
:1013C000022227F81EBC10F03DF8B868A7F11E01F4
:1013D00027F81E0C2046022210F034F8A7F11E0157
:1013E0002046022227F81E6C10F02CF8A7F11E01EF
:1013F0002046022227F81E6C10F024F80198E0B96C
:10140000B9F11C0F0AD240F22C00C0F2000009F022
:1014100070F8022088F80100012008E015F11C0096
:1014200022D21C21CAF808000020C8F8041088F84D
:10143000000003B0BDE8000FF0BD42F2F07042F2D0
:10144000A432C0F20100C0F201022A2108F0E7F93B
:1014500042F23030C0F2010008F045FF42F2943011
:10146000C0F2010008F03FFF42F24030C0F201003C
:1014700008F039FFF0B503AF4DF804BDC4B00968FA
:101480000446086848B122AD1268284600F06AFC9C
:10149000229E042E04D1052607E0062020600BE0E2
:1014A000291D01A8842210F081F844F8046B01A9D9
:1014B0008422204610F07AF844B05DF804BBF0BDF9
:1014C000F0B503AF4DF804BDC4B009680446086820
:1014D00048B122AD1268284600F044FC229E042E3A
:1014E00004D1052607E0062020600BE0291D01A895
:1014F000842210F05BF844F8046B01A98422204692
:1015000010F054F844B05DF804BBF0BDD0B502AFA4
:1015100004460868016849B100F021FDE18081B20C
:10152000A0800420022908BF052000E006202060DA
:10153000D0BDD0B502AF04460868016849B100F0DB
:101540000EFDE18081B2A0800420022908BF0520A1
:1015500000E006202060D0BDB0B502AF044608040C
:1015600012D094F833010D4610B10A2818BFB0BD4F
:1015700020460BF045FC0020A9B2C4E92C10012143
:1015800084F83311A4F81C01B0BD01680A68BFF3E8
:101590005F8F22B18179104601220AF09CBA80B592
:1015A0006F4642F2296042F24C62C0F20100C0F282
:1015B0000102222108F033F94FF65831C2F203013B
:1015C000D1F8F8010068BFF35F8F20B191F8FE11E8
:1015D00000220AF080BA80B56F4642F2296042F2DA
:1015E0004C62C0F20100C0F20102222108F017F99A
:1015F000F0B503AF2DE9000FABB083460868D0F813
:101600000080BFF35F8FB8F1000F00F00C8191F9FB
:10161000065040461C46914629460AF098FA10B1F9
:10162000B5F1FF3F07DD40F20150ABF800002BB0F1
:10163000BDE8000FF0BD15F07F0A0AD0BAF1090F1E
:1016400008D343F67C625046C0F20102092107F03C
:1016500045FE44B308EB0A00807A844202D940F286
:101660000120E2E70FF059FF05460FF04FFFB8F8F1
:101670001C00012101FA0AF147F268420840C4F255
:101680000202000408D05068084208D05160B8F83F
:101690001C008843A8F81C00106808421AD00120DA
:1016A000ABF80000A9E00FF038FF05460FF02EFF61
:1016B000D8F80400C10300F1AC80010E00F0A38053
:1016C000000408BF802900F09E80E807C2D10FF017
:1016D0001FFFBFE7412C80F0B18003A8CDE90115C1
:1016E000B9EB000198BFA0EB0901A142C0F0AE80A8
:1016F00049462246054610F088FA2E46A6460DF1C8
:101700004C0C3DCEBEF1000F61463DC13DCEB14611
:101710003DC199E87D007DC147F26844C4F20204EE
:1017200004F509702A9004F50470299004F5FE7000
:10173000289004F5F470279004F5EA70269004F5DB
:10174000E0707346259004F5D670249004F5CC70B3
:10175000239009D0BAF1080F80F0808023A850F8B8
:101760002A10C1F800C007E0BAF1080F7BD223A805
:1017700050F82A1000200860DDE9016547F20400F6
:10178000C4F20200BAF1000F4B601CD1B8F8081087
:10179000D0F8FC218B4222F0040238BF0432C0F89A
:1017A000FC21D8F80410D1FA53F2C2EA0101C8F8BA
:1017B0000410D4F8B820C8F804106FF3DF22110425
:1017C0000131C8F8001000F58271002241F82A208A
:1017D000012240F82A2051F82A00C007FBD000203F
:1017E00041F82A002660B8F81C108BF8000041EA86
:1017F0000600CBF80430A8F81C00E8077FF417AF08
:101800000FF086FE13E747F204000121C4F2020044
:10181000C164E80708BF0FF07BFE00208BF80000D2
:10182000CBF8040003E742F2296042F24C62C0F2B6
:101830000100C0F20102222107F0F1FF43F68C62A1
:101840002046C0F20102402107F07FFE46F2DD1083
:1018500040F21B11C0F2010008F081FC43F69C62CB
:10186000C0F2010203E043F6AC62C0F2010250464E
:10187000082107F033FDF0B503AF2DE9000F89B063
:10188000824608680668BFF35F8F002E00F0D280A2
:101890008D7930461C46914629460AF058F90028B1
:1018A0005BD068B2002858D40FF037FE80460FF0A6
:1018B0002DFE47F26C40002DC4F2020055D00168A5
:1018C000102D80F0C2804FF4803202FA05F31942E5
:1018D00057D0082D80F0BF8000EB850252F8341FEE
:1018E000A14200F29380036000F54873089300F56D
:1018F0004373079300F53E73069300F53973059320
:1019000000F53473049300F52F73039300F52A73E5
:1019100000F52570019001A8029347F24C0350F89E
:101920002500C4F202030026C0F80090416003F1D4
:10193000E40003EB850340F82560012643F8246C9E
:1019400050F82530DB07FBD0002340F82530CAF8DB
:10195000041013608AF800305CE040F20150AAF8ED
:10196000000009B0BDE8000FF0BD47F24C02C4F220
:101970000202D2F81011C90705D1D2F8DC10C9074C
:1019800041D1012044E00021082CC2F810113DD3C0
:10199000D6F800C043698569C469016AD0F824E0BB
:1019A000D0F828B089F80240C46A89F80310016BA6
:1019B00089F8015085F0050589F800302B4389F836
:1019C0000640E4B289F80710DBB289F804E0B3FA04
:1019D00083F389F805B044EA012140695B0989B2C3
:1019E00010F0800504BF012010600820C6F800C078
:1019F000CAF8040000208AF80000280663F31040AB
:101A00000844706006E0416BA1420DD940F201200C
:101A1000AAF800005FEAC870A3D109B0BDE8000FC2
:101A2000BDE8F0400FF074BD0023C2F8DC3000F1D7
:101A3000340259E742F2296042F24C62C0F20100DE
:101A4000C0F20102222107F0EAFE43F65C60C0F218
:101A5000010008F094FC43F66C622846C0F20102D3
:101A6000082107F03BFCF0B503AF4DF8048D0E469E
:101A700004460FF052FD80460FF048FDBFF35F8F24
:101A80003568B5B1E8683060D5E900100968884765
:101A9000AA6873689D4204BF00237360EB680BB1B2
:101AA00000261E610023EB602B6101232B7507C408
:101AB00001E0002020605FEAC87005D15DF8048B6A
:101AC000BDE8F0400FF024BD5DF8048BF0BDF0B52B
:101AD00003AF4DF8048D86B04FF658360446C2F277
:101AE0000306B6F8EC01411E032924D3052822D0B1
:101AF000072834D106F5F77101A80A2210F085F8FD
:101B0000D6F89852812D5FD2701906F5FC7800F551
:101B10000472C5F1800304A84146FFF7ACFE9DF8AE
:101B2000100098B39DF8110000283ED00920A6F8B7
:101B3000EC01404623E006F5FC7104A801220023D5
:101B40000025FFF798FE9DF8100028B19DF81100C0
:101B50000521617220702AE0A6F8EC5125E006F517
:101B6000FC7504A8012200232946FFF784FE9DF896
:101B700010000028EAD10920A6F8EC012846FFF75A
:101B800004FD06F50170FFF700FD0EE005996818E9
:101B900029D2812820D2D6F89802401829D2D6F826
:101BA0009C12C6F89802884205D20420607206B0E2
:101BB0005DF8048BF0BD062001A9A6F8EC012046D3
:101BC0000A2210F022F8F2E742F2C4622846C0F27C
:101BD0000102802107F096FC42F2E4628021C0F20B
:101BE000010207F0B2FC42F2D460C0F2010008F03A
:101BF0007AFB42F2F460C0F2010008F074FBD4D426
:101C0000D0B502AF82B04FF658340021C2F20304BF
:101C1000B4F8EC01421E072A2BD80020DFE802F0BE
:101C200004130F2A2A2A2A2104F5F67000F024F85A
:101C3000C1B2B1F108000CBF014601201AE0FFF764
:101C4000BBFC052012E004F5017168460122002367
:101C5000FFF7CEFC9DF8000038B19DF8011001207F
:101C600008E00121A4F8EC0104E00320A4F8EC0151
:101C70000021002002B0D0BDF0B503AF2DE9000B6C
:101C800082B0D0E92B69B14545D3B0F81C80044639
:101C9000D0E92925A9EB0600804538BF40468019C8
:101CA000002A04BF04F124028025B04239D3A8429F
:101CB00023D8831B04F1180132446846FFF798FCCF
:101CC0009DF8000010B19DF8010012E00199701814
:101CD0002DD2A84218D84845C4F8AC0008D300203B
:101CE0004145C4F8A4004FF0030008BF0220208043
:101CF000082002B0BDE8000BF0BD42F23472294664
:101D0000C0F2010207F021FC42F254722946C0F2EF
:101D1000010207F01AFC42F21470C0F2010008F050
:101D2000F5FA42F22470C0F2010008F0DCFA42F247
:101D30004470C0F2010008F0D6FA018801F00D01EC
:101D400004291CBF07207047D0B502AF04460C30F1
:101D5000092124F8181BFFF718FC2046FFF715FC93
:101D60000820D0BDF0B503AF2DE9000FE7B08146E4
:101D70000868012840F0B180087B8A4628B1032812
:101D800040F0E180DAF808B003E0DAF804B0CAF80D
:101D900008B0D2E90054DBF800600FF0BEFB8046CB
:101DA0000FF0B4FBD6F8400228B1D6F84412A14295
:101DB00008BFA8420AD02968204688470246D6E9CB
:101DC0009030C6E990210BB1596888475FEAC87026
:101DD00008BF0FF09DFBDBF800600FF09EFB044690
:101DE0000FF094FBD6E98D0196F83C22411A18BFFA
:101DF00001211143CD0710D0002186F83C12411C6F
:101E000080F0A7800A1F18BF0A460428C6F83422AB
:101E100079D206F50C7111F800B0E00708BF0FF099
:101E200077FB4DB35FFA8BF0042873D20001832255
:101E300050FA8BF056F8304006EBC000411D057992
:101E400043A80FF0E2FE0FF068FB80460FF05EFB48
:101E500006F5127164A8BFF35F8FFFF704FE649963
:101E6000B9B1669A002A67D0012382F801B01370D5
:101E700065984968884715E00FF04FFB04460FF05E
:101E800045FBE007D6F8505208BF0FF041FBBDB14B
:101E900020E096F82C02012843D006F50870594638
:101EA00000F0A2F95FEAC87008BF0FF031FB22A86A
:101EB00043A983220FF07AFB032C04D1E80709D150
:101EC000032400250BE001A822A983220FF06EFB5A
:101ED000042C04D103208AF80C0004240DE009F13D
:101EE000050001A9832289F804500FF08EFE00201E
:101EF000CAF8000001208AF80C00C9F8004067B059
:101F0000BDE8000FF0BD46F26950DA21C0F20100D1
:101F100008F025F945F60610D621C0F2010008F0B8
:101F20001EF942F6B47042F6D872C0F20100C0F257
:101F30000102222107F073FC44F2B100DD21C0F25E
:101F4000010008F00CF943F2C420C0F2010008F0CF
:101F50003FFA42F65810C0F2010008F0C4F9F0B59B
:101F600003AF4DF804BD016851B14FF60C5141F279
:101F70000042CFF6FF71C4F200025358DB0701D1D3
:101F8000022223E04FF0000C012342F801C0D16887
:101F9000D2F800E00468ACB14FF60C44CFF6FF7401
:101FA000135141F25052C4F2000241F61B6415680D
:101FB00005F00F050C2D0DD803FA05F62642F6D1D3
:101FC000022D07D123EA0E02C0F800C010465DF8CA
:101FD00004BBF0BD43F65C70C0F2010007F064FD85
:101FE000F0B503AF2DE900078C468168012945D182
:101FF000C36841698B4253D20269D55C6C1CE5B25F
:10200000A54254D18569D45415F1020E55D28E459E
:1020100032D815F5807356D28B4228BF0B467345D4
:1020200036D3A3EB0E03052B26D39CF80630BCF861
:10203000044002F80E3002EB0E039CF808A09C70DE
:10204000240ADC70AAF103049CF809809CF807902C
:10205000E6B2042E4FEA0A1683F8049028BF012442
:102060005FFA84FC46EA8806BCF1010F08BF741CC5
:102070005C70EB1D8B4205D9022000E00720BDE813
:102080000007F0BD40F20751836108205153F6E785
:1020900046F2B0027046C0F20102194607F000FD98
:1020A00042F2E0721846C0F2010207F017F942F25C
:1020B000E070C0F2010008F016F946F29000C0F29C
:1020C000010008F010F946F2A000C0F2010008F08B
:1020D0000AF9F0B503AF4DF8048D82B006460868E2
:1020E00018BB0C46D7F808804FF0FF31204640F867
:1020F000041B1D4680218023CDE9005809F04DFDC9
:10210000C00702D03170072507E0F868F07104F1CC
:102110003000B171A6F8048030602068357201305B
:10212000206002B05DF8048BF0BD42F65C00C0F2A6
:10213000010007F0EFFCF0B503AF2DE9000B82B012
:102140000646086828BB0C46D7F808804FF0FF31D8
:10215000204640F8041B1D4600210023CDE900580D
:102160004FF0000909F019FDC00702D031700725B2
:1021700007E004F1300086F80790B171A6F80480FA
:102180003060206835720130206002B0BDE8000B7D
:10219000F0BD42F65C00C0F2010007F0BBFC80B568
:1021A0006F464DF63031C2F20301D1F8CC02A8B926
:1021B00091F8D0024FF0FF32C1F8CC22421CD3B2CA
:1021C000934201BF0023C1F8CC3281F8D02280BDF8
:1021D00042F6CC00C0F2010008F085F842F6BC00DF
:1021E000C0F2010007F096FC80B56F46027B82B911
:1021F0008268042A18D28154816801311BD2426856
:102200000B1F18BF0B4683609A4204BF0121017364
:1022100080BD46F29D6042F64812C0F20100C0F255
:102220000102212107F0FBFA46F26950DA21C0F2DF
:10223000010007F094FF42F65810C0F2010008F0C8
:1022400052F880B56F4690F88820B2B9D0F8842053
:10225000802A1DD28154D0F8841001311FD2D0F8C9
:102260008020B1F1800318BF0B46C0F884309A4239
:1022700004BF012180F8881080BD46F29D6042F6BF
:102280004812C0F20100C0F20102212107F0C7FA92
:1022900046F26950DA21C0F2010007F060FF42F611
:1022A0005810C0F2010008F01EF880B56F46D0E962
:1022B0000121914204BF037B5FEAC37308D09142BE
:1022C00001D9891A01E0042A0FD8B1F1FF3F04DDDA
:1022D00000210173C0E9011180BD46F2234040F2A4
:1022E0001B11C0F2010007F03AFF42F63810C0F2AD
:1022F000010008F00BF880B56F46D0E9203190F866
:102300008820591A18BF01210A43D1070FD013F1B1
:10231000010C4FF0000180F8881011D2BCF180014F
:1023200018BF6146802BC0F8801002D2C15C1046F5
:1023300080BD46F26950DA21C0F2010007F00FFFBC
:1023400042F65810C0F2010007F0CDFFF0B503AF20
:102350002DE9000FB1B0054602F1800093468A4690
:1023600090E85C000CA95CC10D9E002E00F09587E2
:102370000E9810F1140881F09F8018F10E000B9058
:1023800081F0A080286831460790E86805902846CB
:10239000D5E9014910960CF049FDCDF8289050B1CF
:1023A000CDF824B04FF0FF0B4FF0FF314FF0FF0995
:1023B000049406962DE006F0F000E0285AD1C6F30A
:1023C00006208DF8A3005E2011A98DF8A20001203F
:1023D000ADF8A000300E8DF8A500300C8DF8A400EB
:1023E0000020ADF84800119028A8421A98BF0A1A98
:1023F000052A40F24A87CDF824B004940696DDF809
:10240000A0B0BDF8A4004FEA1B214FEA102941EA11
:102410000061E8680D2841F25B800E38804504D9E0
:102420000220DDF824B000F023BF0B9EB6F5803FFC
:1024300080F046875046884603F0BEFCC1B20829AA
:102440004FF0000004BFDAF80810002978D08DF8AA
:10245000440043F29420C0F2010043F2C413009000
:1024600046F23E50C0F20100C0F2010311AA2B2136
:1024700007F093FDD5E9040110AACDE9000111A8E8
:1024800029460CF0B1FD9DF84400002800F0EF80D3
:102490000494DDF84540D5E90401CDE9000105F1DA
:1024A000200111A8224606960DF0C5FF9DF84400B4
:1024B000002800F01183012840F09B83D5F8F0003C
:1024C00049F69A11C1F69911884280F02F870028A9
:1024D00000F0CD8005F5B4764FF0FF30CDF8520016
:1024E0004FF6FF72D5F8F4004FF00008B188ADF850
:1024F00056203268CDF84E005046ADF84480169410
:102500001292ADF84C1003F057FCC0B2082804BF7B
:10251000DAF80800002800F0F18243F2942043F238
:10252000C413C0F2010028AA009046F23E50C0F247
:102530000100C0F201032B218DF8A08007F02DFDD2
:102540001C2010FA86F188B2884240F0CD87B0F5A1
:10255000006F01F20580BAF8183051461C2200962F
:10256000581CAAF8180011A8FEF7BDFE9DF84400FB
:10257000012800F0EB87DAF808108A1980F0AE879E
:1025800011ACB2F5006F00F2E58705F5B470DAF82A
:102590000030CDF80CA0A2EB010A8288BAF10B0F33
:1025A0000668ADF8A420289640F29B865E1828ABFA
:1025B000B11D5A1A98BFCA1A052A40F266860268E7
:1025C00080888880A01B0A608DF84990CDF84580EE
:1025D0008DF844B098BF301B052840F25686BAF1FA
:1025E0000D0FC6F8018086F800B086F8059040F21D
:1025F0007E8606F10C010820621AADF8440098BFEF
:102600000A1B012A40F24186B081AAF10E042B7AFE
:1026100006F10E010CA822460EF0BAFB132C40F274
:102620006E86DDF824B006F122080C9CAAF122097E
:10263000DBF800000238032828BF0320DDF828E07B
:102640000896DFE810F00400DF011700DA00B9F1A6
:10265000010F40F25B879BF80400DFE810F00400F4
:102660004A03CC020803DBE90313082444E30020F7
:1026700000F0FEBD0BF1040111A8542202940EF0EB
:1026800095FF079828ADC0B105981428C0F046877B
:10269000A0F1140411A80CF043FA8442C0F044875E
:1026A0000499201AA1FB0001002940F04387BDF8DE
:1026B0009210884238BFADF89200B9F1010F40F294
:1026C0003D86BDF88E00B5EB080100BA4FEA104018
:1026D000ADF8A00098BFA8EB0501012940F2D5850F
:1026E000DDF80CA0B9F1030FA8F8000040F22C8629
:1026F000BDF8900006F1240128AB00BA5A1A4FEA3F
:102700001040ADF8A00098BFCA1A012A40F2BD855A
:10271000B9F1070F088040F21D86229806F12601C4
:1027200028AB00BA5A1A289098BFCA1A032A40F256
:10273000AC85119DB9F10B0F086040F2208612990B
:102740002846002D18BF08BA06F12A0128AB5A1AEC
:10275000289098BFCA1A032A40F29785B9F10F0F43
:10276000CDF81480086040F22686BDF8920006F18C
:1027700030010DF1A008CDF81C9000BAB8EB0102B1
:102780004FEA1040ADF8A00098BFA1EB0802012A63
:1027900040F27B850DF14409308648460CF0C0F9C3
:1027A0003446F02234F82E1F02EA8000A4EB08061B
:1027B000B8EB040221F0F00100EB01033146ADF863
:1027C000A03088BF1146012940F25F85A0453146FF
:1027D0002380ADF8A00088BF1146012940F255853D
:1027E0009DF895302080DFE813F004030500F40223
:1027F000F702F10200F50060F0E2584602940CF096
:1028000038FAB9F1010F40F28285BBF87C2011AD96
:10281000BBF87E10B5EB080352BAADF8442098BF60
:10282000A8EB0503012B40F23085B9F1030FA8F89E
:10283000002040F2718506F1240249BAAB1AADF8C6
:10284000441098BF531B012B40F21F8508301180A4
:1028500080F05686B9F1050F40F2638501BA06F1A2
:102860002602AB1A4FEA1141ADF8441098BF531B32
:10287000012B40F20A851FFA80FABAF1080F118085
:10288000C0F06D85D145C0F08085AAF108056C2D9A
:10289000C0F0858506F14C004A210FF0BCF9EC2D03
:1028A000C0F08F8506F1960080210FF0B4F99BF8F7
:1028B000540046F2C871C0F20101DBF8382040F242
:1028C000016311AC095CA6F82B3086F82A1011BA06
:1028D00006F12E021191A31A98BF131B032B40F28D
:1028E000D484C6F82E100BF1580206F14601531A93
:1028F00098BF8B1A052B40F2C884136892888A808F
:102900000B600021BBF8562086F82D1011BA06F195
:102910003202A31A4FEA1141ADF8441098BF131BBD
:10292000012B40F2B284EF2D118040F2508548F225
:10293000632106F58B72C6F25331A31A119198BF29
:10294000131B032B40F2A184C6F8161106F13602C0
:10295000DBF83C10A31A119198BF131B032B40F214
:102960009484C6F8361006F13A02DBF84010A31A38
:10297000119198BF131B032B40F28784C6F83A10BD
:1029800006F13E02DBF84410A31A119198BF131B05
:10299000032B40F27A84C6F83E1006F14202DBF8BF
:1029A0004810A31A119198BF131B032B40F26D849A
:1029B000C6F8421006F134029BF86810002918BFCF
:1029C0008021A31AADF8441098BF131B012B40F2CD
:1029D0005C84B186AAF1F801279106F58D712691E4
:1029E0000121CDF81C900DF1A00ADFE810F0E602FD
:1029F0000900DA02DC02D802E002E202DE02E402AE
:102A00000221DAE20DF1440CB9F1010F40F27F84AA
:102A1000BBF80C30BCEB0806DBE901121BBABBF8B3
:102A20000E004FEA1343ADF8443098BFA8EB0C06F4
:102A3000DDF80CA0012E40F22884A8F80030B9F18E
:102A4000030F089B40F26884243340BABCEB0306B2
:102A5000ADF8440098BFA3EB0C06012E40F215849C
:102A6000188012F1080080F04B85089EB9F1050F1F
:102A700040F2578403BA06F12605BCEB05064FEA7F
:102A80001343ADF8443098BFA5EB0C06012E40F27D
:102A9000FC830B9E2B8083B2082BC0F06884994581
:102AA000C0F07784A3F10800904240F07E8408983B
:102AB0002A300B1A98BF431A9342C0F0E68325468A
:102AC00074460FF0A2F8E0050DD4069B4046494637
:102AD0002A460EF01EFBBCE3CDF824B0DDF845B06D
:102AE000BDF849008FE4B9F1070F40F2A9840899B5
:102AF00011AB00202831ADF844004CE2BAF8183090
:102B00000DF1A00851461C22581CAAF818002A20D2
:102B100000904046FEF7E7FB9DF8A000012800F07A
:102B20002285DAF8080010F12A0480F0D784B4F581
:102B3000006F00F21C85211A2A2940F09884DAF8E7
:102B4000001032680844B188ADF89C10811D2692AF
:102B500026AA531A98BF8B1A052B40F29683326827
:102B6000B3888B800A604FF6FF7129914FF0FF31D7
:102B70002891B8EB000198BFA0EB0801052940F2AD
:102B80008483BDF8A4202899828000F10C020160A2
:102B90004FF4C161B8EB0203ADF8A01098BFA2EBEF
:102BA0000803012B40F27183818100F10E0111A80D
:102BB0001C2206F0F8F95046CAF8084003F0FCF869
:102BC0005FFA80F85FEA48707FF4A7AC44F24021D6
:102BD000D5E90402C0F20F01401842F1000182EA77
:102BE000010323EA0202B2F1FF3F40F3A984C5E9E1
:102BF0003A0101203CE30BF11002CDF814809BF860
:102C000005C011AB9BF8061092E871004A46BCF172
:102C1000100F904671C34FF00300DBE9025938BF33
:102C20006146089B072A83F8231083F8220040F2AC
:102C3000F483AAF12A0403F12A0111A8734622465B
:102C40000EF0A6F80B9E132C40F21C84AAF13E0253
:102C50004A4540F0218408983E30291A98BF411B0C
:102C6000DDF80CA09142C0F0108329463BE00BF147
:102C70001002CDF814809BF805C011AB9BF806102C
:102C800092E871004A46BCF1020F904671C34FF0C2
:102C90000B00DBE9025938BF6146089B072A83F81D
:102CA000231083F8220040F2B883AAF12A0403F12A
:102CB0002A0111A8734622460EF06AF80B9E132CC7
:102CC00040F2E583AAF13E00484540F0EE830898C3
:102CD0003E30291A98BF411BDDF80CA04945C0F0D1
:102CE000D48229464A460EF090FFC146DDF8148092
:102CF0003CE0DBE903130024BBF80800089EB9F1AF
:102D0000050FBBF80620748411AC40F28E8306F1E7
:102D1000260552BA661BADF8442098BF2E1B012E23
:102D200040F2B382B9F1070F2A8040F28483089DF4
:102D300040BAADF8440005F12802A61A98BF161B48
:102D4000012E40F2A282288505F12A000E1AAAF16E
:102D50002A0298BF461A934238BF1A469642C0F0DC
:102D600094820EF052FFDDF80CA00B9E089811AB78
:102D700000F124040A98C0011DD4E51A404600223F
:102D8000B3EB04082946ADF8442088BF4146012929
:102D900040F27B82494622800DF0C0FBC04311A95E
:102DA00000BAA1424FEA1040ADF8440088BF454642
:102DB000012D09D869E20020191BADF8440098BF25
:102DC000E11A012940F26182208042E200F5806030
:102DD00004E000F5007001E000F5807028A9ADF86E
:102DE000A000A142314688BF1146012940F24D8220
:102DF000208028A940EA0533A142ADF8A03088BF61
:102E00001646012E40F241823C210B9E01EA9001C0
:102E100023801429C0F0E38207988842C0F0E6823C
:102E2000089ABDF87C0002F13603A1F1140258B1F2
:102E3000BDF87E000421ADF8A40028A82891194609
:102E40000BF0ECFA03460A469DF88C0001280BD1E2
:102E50009DF88D0005218DF8A40028A82891194619
:102E60000BF0DCFA03460A469DF8940020B144F2C8
:102E70009470C0F201000BE095B109F1080008213F
:102E80002C290DD059F801600C31002E0B9EF7D083
:102E90001946DDE906980BF0C1FA03460A4601E03F
:102EA000DDE906981C9801280BD1DDE91D01CDE96B
:102EB00029010820289028A819460BF0AFFA0346EC
:102EC0000A4632B144F2B8701946C0F201000BF064
:102ED000A5FA089928AB00203431ADF8A0005A1AA1
:102EE00098BFCA1A012A40F2D08108803C2120886C
:102EF00001EA90008045C0F08182219AA8EB000190
:102F00008A4200F282820599084420990B1A98BFE0
:102F1000431A9342C0F0B9810EF077FE0A98C003BD
:102F200033D4B8F1110F40F29382089928A80022F7
:102F300001F13205ADF8A020411B98BF291A029873
:102F4000012940F2A2812A804946032243460DF01E
:102F50005EFB0446059841460DF0E0FAADF8A0404E
:102F600028ACADF8A200022120460DF02CFBC04396
:102F7000611B00BA4FEA1040ADF8A00098BF291BB2
:102F8000012940F28281288063E108990020ADF890
:102F9000A00028AB32315A1A98BFCA1A56E105214F
:102FA0000BE0032109E0042107E0082105E00621E8
:102FB00003E0072101E09BF8551035200DF144098D
:102FC0008DF84C000120129026A88DF8A0104946DB
:102FD000CDF844A00BF0FFFD002840F004819BF8E1
:102FE0006E00012822D100200BF16F01ADF8A50081
:102FF000CDF8A10001208DF8A0000AF101000A1A05
:1030000098BF421A052A40F240810A688988818067
:1030100011A902600720CDE911A03D208DF84C00D8
:1030200026A80BF0D8FD002840F0DD809BF8750045
:10303000012810D1362011A98DF84C0004201290DF
:10304000DBF87600289026A8CDF844A00BF0C3FD4D
:10305000002840F0C8809BF85E00012810D10320B2
:1030600011A98DF84C0004201290DBF85F00289025
:1030700026A8CDF844A00BF0AEFD002840F0B380A8
:103080009BF86300012810D1012011A98DF84C0094
:1030900004201290DBF86400289026A8CDF844A004
:1030A0000BF099FD002840F09E809BF869000128F4
:1030B00010D1322011A98DF84C0004201290DBF8B9
:1030C0006A00289026A8CDF844A00BF084FD0028C3
:1030D00040F08980BBF82C00012811D13920BBF8C1
:1030E0002E108DF84C000220CDE911A008BA11A9CC
:1030F000000CADF8A00026A80BF06DFD002872D1E1
:10310000DBF81400012810D1332011A98DF84C00F0
:1031100004201290DBF81800CDF844A000BA2890E3
:1031200026A80BF058FD00285DD1DBF84C0060B1FB
:1031300037218DF84C10DBF85010CDE9110126A88D
:1031400011A90BF048FD00284DD1DBF80000012843
:1031500034D1DBF804C000202A90BCF1005FCDE937
:10316000280080F0E380BCF1000F1DD00BF1080EA9
:10317000AAEB0902A9EB0A01002660460C2E00F01A
:1031800097805EF806500AEB0604A1450B461195A0
:1031900038BF9319032B78D94AF8065004390436FE
:1031A0000138EBD14FEA8C00CDE911A006208DF853
:1031B0004C0026A811A90BF00EFDA0B9DBE90C60AC
:1031C0000DF1980A00EB40008500DDB1314648461C
:1031D00091E81C0049461CC050460BF0FCFC0C3D1D
:1031E0000C360028F1D045F6505045F6E833C0F2D1
:1031F0000100C0F20103009046F23E50C0F201000F
:10320000FFF734B927980028EDD02698FF210170E8
:103210000A98C00509D4029A4046DDE906310DF04E
:1032200078FFDDF80CA00B9E13E00799DDF80CA0E9
:103230000B9E072940F2148108990020ADF8440044
:103240002831B9EB010298BFA1EB0902012A1CD970
:103250000880DAF80800801980F04C81CAF808006C
:10326000504602F0A9FDC0B241077FF4F0A8022049
:10327000DBF80010012904D1DBF80410B1F1005F84
:1032800027D231B0BDE8000FF0BD46F2DD1040F2AC
:103290001B11C0F2010006F062FF42F6681042F610
:1032A000A012C0F20100C0F20102362106F0B7FA06
:1032B00044F6E0021020C0F201020C2106F045F9AC
:1032C00043F2842043F2D413C0F20100C0F20103A0
:1032D00091E746F2234040F21B11C0F2010006F0D4
:1032E0003EFF42F21C420C20C0F2010204E042F216
:1032F0002C420E20C0F20102514606F026F942F29D
:103300003C42C0F201021420214606F0FBF845F6CB
:103310004062C0F2010215E045F65062C0F20102BF
:1033200016E045F66062C0F2010282E046F20C301F
:1033300040F21711C0F2010006F011FF44F2C4522E
:10334000C0F20102022080E044F2D452C0F2010235
:1033500004207AE044F2E452C0F2010274E045F63F
:1033600090620820C0F20102514606F099FB45F632
:1033700090620820C0F20102194606F091FB44F267
:10338000F4520C20C0F201025FE045F69062504614
:1033900002E045F690621846C0F2010255E044F69C
:1033A00070026C20C0F2010216E045F6405311464F
:1033B000C0F2010376E044F204621020C0F2010280
:1033C00043E044F68002EC20C0F2010204E044F63F
:1033D0009002F020C0F20102294606F0B6F844F24D
:1033E00024621420C0F2010206F05AFB0846079935
:1033F00044F22462C0F2010206F0A7F844F23462FB
:103400004146C0F2010206F07DF844F2DC7310463A
:10341000C0F201031A4606F098F844F65822082034
:10342000C0F20102414606F06DF844F63822C0F2BF
:103430000102062009E044F64822C0F2010203E03E
:1034400045F67062C0F201020820494606F07DF898
:1034500044F214621220C0F20102414606F075F8EF
:1034600045F670620820C0F2010206F06EF842F2E2
:103470004C4042F2F042C0F20100C0F2010234219D
:1034800006F0CDF944F6A822C0F201023BE744F66B
:10349000C822C0F2010236E744F6B8231046C0F253
:1034A000010349461A4606F0ADFE44F6D8224946C5
:1034B000C0F2010206F0A6FE44F6F470C0F201006C
:1034C00006F011FF42F2D070C0F2010006F00BFFCF
:1034D00045F6C050C0F2010006F018FF42F230304D
:1034E000C0F2010006F0FFFE43F26410C0F20100DA
:1034F00006F0F9FE42F24030C0F2010006F0F3FEA1
:1035000045F6A060C0F2010006F0EDFE44F6282268
:103510000120C0F20102494605F0E0FE45F2040038
:10352000C0F2010006F0F2FE45F21400C0F2010004
:1035300006F0ECFE45F22400C0F2010006F0F9FEB0
:1035400044F61070C0F2010006F0CDFE9DF8450073
:10355000FEF77DBF40F22B00C0F2000006F0C9FF6D
:103560000220FEF774BF9DF8A180FEF7D6BF40F29F
:103570002B00C0F2000006F0BCFF4FF00208FEF77F
:10358000CCBFD4D4F0B503AF2DE9000FEDB04FF6AA
:10359000583B9046C2F2030B4FF4A872CBE90401EA
:1035A00049A808300F9015A803FB028A0430139035
:1035B0002AA800F108010E9100F16F01129100F1AB
:1035C0003C01583010904FF00009002011911490E8
:1035D000D04501F009804546F8E8540180F0050027
:1035E0000843F5D095F83801012834D1D5E9509138
:1035F00015AAD5F8390115902AA8DBE904460C91E3
:103600005946CDF834A0CDE900460BF0EDFC9DF80D
:10361000A800A0B1DDF8A9200BF1200149A8CDE94F
:103620000046DA460CF007FF9DF8240140B9D34666
:10363000DDF834A04FF0000985F838910BE0DA4648
:10364000B4EB0900D3460C984FF00009DDF834A024
:1036500076EB0000BCDBD5E90001023861F1000126
:10366000C21E71F100014FF0010128BF0846012878
:1036700076D1B5F81C010028AAD0D5E91423DBE9DE
:1036800004101A4302D0D5E9163206E001220B4697
:10369000C5E914290246C5E916102E6BF60710D0AD
:1036A000D5E90E6482EA040C9B1942EB04067240D1
:1036B00022EA0C02B2F1FF3F41F32180C91AB04166
:1036C0004BDADBF80C1028460AF0BCFD002840F06D
:1036D000BE80D5F88020DBE90410022A27D0012A19
:1036E00040F0B580D5E92232CE1A70EB0206C0F266
:1036F000AE8080EA0206CB1A60EB020280EA020486
:103700002640B6F1FF3F41F31E8083EAE273D5E91C
:10371000246C82EAE274B3EBE27364EBE2729B190D
:1037200052EB0C0249F10002012A01F006802E6CD6
:10373000D5E91232D5F80041F607C5F8084160D046
:1037400080EA0206C91842415040B043B0F1FF3F41
:1037500040F3D5870023012055E085F8339176E0CA
:10376000002840F03D8195F85000D5F83CE0002855
:1037700095F851204FF0400008BF0246BEF1000FFF
:1037800000F0CB82A86B10F1010980F0E487696B2F
:10379000002900F0DE878842079280F0FA87D5E999
:1037A00002C208922A6B02EB0012907A022840F0C3
:1037B0005584D5E91134CDF834C0A342C0F0DD877B
:1037C000DC46D5F84CB01E1B5E4528BF5E46A019EE
:1037D00080F0D987984200F27B871268001B9042E4
:1037E00038BF0246B24200F25387002B00F0248417
:1037F000A01880F0D887B0FBF3F404FB130000F0AE
:103800001CBC0020002395F92860C5E92203012093
:1038100086FA50F0C5E9009985F82800C0B203285F
:10382000C5E92099C5E9241211D32A6A85F82890A0
:10383000002A00F17C87696A500042F210739842B6
:1038400042F2107038BF5000286209F0B3FADBF87A
:103850000C1028460AF0F6FC002876D128460AF01B
:10386000D1FB68B1D5E91C0180F0010008436CD19F
:10387000D5E91E01DBE90423101A73EB010064DAB9
:1038800095F83301811E04293BD8D5F8BC30D5F812
:10389000C4209342C0F0398795F83411202980F074
:1038A0003A879B1AD5F8984023FA01F64FF6FF7332
:1038B0009E4238BF3346012C23D1B2F1FF3FC2BF35
:1038C000B5F82E418C40B4F1FF3F40F39486D5F813
:1038D0009CC0D5F804E164447244A21AB2F1FF3FDF
:1038E00040F3A8866EB122FA01F14FF6FF729142C1
:1038F00028BF1146B1EB530F4FF0000198BF0121D3
:1039000000E0002109BB00B3D5E92036D5F88820B6
:10391000DBE9041053EA06040ED083F003033343BB
:103920007FF456AED5F88C30891A9841FFF650AE28
:10393000284609F065FA4BE6D2073FF449AED5E9CF
:103940002423891A9841FFF643AEB5F81C01C0073D
:1039500000F0838695F82A01D5F8C460002895F810
:103960002B114FF0400008BF0146B6F1FF3F40F376
:103970004286D5F8BC00B042C0F0C78695F8342125
:10398000202A80F0C8860891801BD5F81E114FF0C0
:10399000000C079120FA02F2D5F824114FF6FF70BF
:1039A0000A918242D5E94131B5F828410D91B5F827
:1039B00022B1D5F8141128BF02460C92002900F05C
:1039C0002781D5F818019946099088474B460999EF
:1039D00021904FF0000C4FF000090120229118E1D6
:1039E000DBE9060146F21D16C3F63946DBF80C404A
:1039F0007143A0FB06234FF6EC46CBF62E3600FBB8
:103A000006304EF63973C7F290539B1843F21452A6
:103A1000C0F2010240EB0106CBE90636D5E92401EC
:103A2000002804BF104603210D2C40F27A86A4F131
:103A30000E0EBEF13C0FC0F094864A3C082CC0F03C
:103A400096861D24A4EB5674760084F01F0CE34088
:103A5000BBF86C4106FA0CF643EA0609109E119B6E
:103A6000D5E9182C0D920022B480129CC3E90022E3
:103A7000C3E90222DBF8683133600126DBF86831E4
:103A8000CDE93D01AEF144002360BBF86C31ADF8E7
:103A9000D6000D98CDF83090CDF8E0904FF00009A9
:103AA0008DF8FC20ADF8FE200222ADF810918DF8C3
:103AB0000B918DF806918DF81661A3808DF81D91FC
:103AC000ADF8D460CDF8DCC0CDF8A8903690CDF834
:103AD000CC90CDF8C490CDF8BC9095F85C00DBE9B3
:103AE000046C811EB5F8A440B5F8A6E0C9B202295D
:103AF00028BF1146002900F01481012940F072818D
:103B0000D5E90601301A7CEB0100C0F28181B5F8DD
:103B10008800A98D814280F0A881D5E90901764607
:103B2000CDF81E012AA88DF8FC2001220D948DF8F5
:103B300011218DF81D21CDF812110BF09AF810F11A
:103B4000080180F054869BF8E801022840F06D825D
:103B5000CDE90A610BF5DE762B9C304602F02CF99C
:103B6000C1B208294FF0000004BFDBF8C4110029DE
:103B700040F05C82DDE90E107422CDE949940DF02D
:103B800015FD4FF4886049AAADF8B00131460B9895
:103B90006B904FF0FF30CDE969900D98ADF8A20120
:103BA0000A98ADF8A0015846FEF7D0FBC0B2022833
:103BB00040F01884A88D802880F02B862023D5E93A
:103BC0001C12A3EB50034608B240DBE904C421FAFF
:103BD00003F313436FF01F0202EB5002002A58BF99
:103BE00001FA02F301FA06F158BF002111EB0C01B2
:103BF00044EB030284EA0206634026EA0303B3F1BE
:103C0000FF3F40F37C850130A885C5E90612DFE05F
:103C100000202090F1180D98012626904FF0000EFC
:103C20000C98ADF8A0400124ADF89EB04FF6583B7B
:103C3000ADF8A20002201691C2F2030B15968DF882
:103C40009CC0ADF8A4C0ADF88CC0CDE9246CCDF813
:103C500074C0CDF868C0CDF85CC095F833210991E7
:103C60000021DFE812F01A01F802D900D9000B0098
:103C70000B0033010B000B000B003301D5F80C21B6
:103C8000B2F1FF3F40F3B784D5F80011D5F8083101
:103C90000A44D5F81061D21ADBF80C0022EAE2726D
:103CA000964238BF32460E28C0F03B85A0F10E0682
:103CB000142E24BFA0F12206142EC0F0AF845E1A89
:103CC000B6F1FF3F40F3B68436383146904238BFF4
:103CD000024605F1C8000CF0E5FDCDE9240170189D
:103CE00080F07385D5F8D420904240F0D08095F8CC
:103CF00033014FF0000C01260438052800F2CA8079
:103D00004FF0000EDFE810F06E020600E2006E02D7
:103D1000060006004FF0030EC1E003204FF0000C38
:103D200094E2D5E90601301A7CEB010070DB2AA889
:103D300076460D940AF09DFF10F1080180F0518540
:103D40009BF8E801022840F07081CDE90A610BF58B
:103D5000DE762B9C304602F02FF8C1B208294FF0D6
:103D6000000004BFDBF8C411002940F05F81DDE9E9
:103D70000E107422CDE949940DF018FC4FF48860C0
:103D800049AAADF8B00131460B986B904FF0FF3067
:103D9000CDE969900D98ADF8A2010A98ADF8A0019F
:103DA0005846FEF7D3FAC0B2022840F01B83D5E98B
:103DB0001A01DBE9042383EA01068018594183EAEA
:103DC0000102B243B2F1FF3F40F39984C5E9060115
:103DD0004FF0FF300C994FF0010C0B900220C5F80A
:103DE000A01014E3D5E90A12711A7CEB02013CDA47
:103DF000D5E90612711A7CEB020109DBD5E908212D
:103E0000C30700F04D82B31A7CEB010380F24882B5
:103E100002204FF0000C1EE2D5F8BC000223D5F8BA
:103E2000C410D5F8006188428DF8A5300D9626960D
:103E3000C0F06B84411A4FF6FF70814228BF0146E3
:103E4000022A0C91ADF8A2102DD14FF0010C0026E2
:103E500015964FF0020E8DF8A4C000248DF89CC07A
:103E600095F834018DF89D002FE005F108000CF065
:103E7000D0F82A9902204FF0000C002900F0EB81C5
:103E80002B99B1F1005FC0F0E68100F030BC4FF03B
:103E9000000C01264FF0000E18E04FF0040E002435
:103EA0008DF8A5E012E095F82C01002495F8311169
:103EB0004FF0020E95F8342101268DF8A4104FF032
:103EC000010C8DF89D208DF89C000021D5E9200281
:103ED000CDF810E010431FD1D5F88800C0071BD0E3
:103EE0003246DBE9040ED5E92436C01A7EEB060023
:103EF000164611DBB1FA81F0400920400CD044F2A3
:103F0000B0000121C0F201002591249001240D98F8
:103F100001380D9026900CE049B1D5F8000100243D
:103F2000D5F80821101AB0F1FF3F02DCA6E300210A
:103F30000024BCF1000F12D0DBF80C000D2840F279
:103F4000F083A0F10E02142A24BF22381428C0F0F6
:103F50006B831438ADF88E000120ADF88C0015A8E5
:103F6000CDE905410AF028FE49AC13990B90502287
:103F700020460DF01BFB2AA8214678220DF016FBE7
:103F80009BF8E80102284AD103960BF5DE7630460D
:103F900001F012FF0A9CC1B208294FF0000004BFD3
:103FA000DBF8C41100293CD103982AA94A900420C7
:103FB000499078220F980DF0F9FA032049AA8DF85C
:103FC000B101314608988DF8B0010B98CDE96A40EF
:103FD000079869905846FEF7B9F9C0B2022840F038
:103FE000F380D5E92032DBE904C006991A4340F09A
:103FF00006822A6CD20700F0FB81D5E9122380EA01
:10400000030612EB0C02434180EA030424EA06068D
:10401000B6F1FF3F40F3738300240126EAE100205C
:104020000A9C4FF0010C0B9415E100204FF0FF317A
:104030004FF0010C0B910EE10020B9FBF1F3ABEB5B
:10404000020203FB1191E346DDF834C0C5E9120218
:10405000BEF10100C5E90E1000F08480AE6B16F1D0
:10406000010E80F07883696B002900F072838E4224
:1040700080F09283D5E911204FF000098242C0F010
:104080007C83EC6C131AA34238BF1C460C900019B9
:1040900080F079839042CDF824E00D9200F2038302
:1040A0002A6B0B4602EB06110C9A0E68801AB0427E
:1040B000C0F0FD82887A0B9A022800F00383E6465E
:1040C000D5F840C0C007CDF818C005940A9103D0B8
:1040D000D1F80B00F4461BE0F4465FEACE3011D471
:1040E000DBF8F00049F69A11C1F69911884280F088
:1040F000F6829E460A990D9B00287BD0DBF8F400DF
:10410000089008E008994FEA1C6040EA01200A99EB
:1041100008909E460D9B3446083680F050839BF8ED
:10412000E8014A68022817D10889E14602900BF598
:10413000DE70CDF810E00B92039001F03DFEC0B2AE
:1041400008284FF000014FF0010C04BFDBF8C40158
:1041500000280DD000203DE000214FF0010C002090
:1041600000264EE003204FF0000C4FF000096DE0F8
:104170000C9849AA06996B96084404218DF8B11150
:1041800007998DF8B0110B996A9108996991029974
:10419000ADF832110399CDE94A04032049905846FD
:1041A000ADF83091FEF7D2F8C0B202280ED10A98CD
:1041B0004FF0010C0B9A4FF000090D9B066801208F
:1041C000DDE904E4149017E001202AE700214FF014
:1041D000010C012000264FF000090B9ADDF810E0D9
:1041E0000D9B0EE000293FF470AE8DF8A5604FF0F6
:1041F000010E6BE64FF0000CA64200F2498202204D
:1042000001210B925BB1AA6C921980F0CC823446EA
:104210001E46B2FBF3F303FB1622264600E0002203
:10422000EB6CAA64B342C0F0C482A3EB0602EA645A
:1042300061B1E86B002800F0CE82099A0138B2FB28
:10424000FEF101FB1E21C5E90E10022002284FF0ED
:10425000020128BF084602283FF4BAA9C00700F0AF
:10426000C381BCF1000F00F0FE8144F24021DBE984
:104270000402C0F20F01401842F1000182EA01037A
:1042800023EA0202B2F1FF3F40F339820B9AC5F8EC
:104290003921012285F83821C5E95001FFF798B985
:1042A000B21A2B6C7CEB01010B934FF000010D94C3
:1042B000CDF828E02B6D0896CDF824C0A8BF0121C9
:1042C00041EA00041E4604F0010085F85C0002206B
:1042D00039938DF8FC002AA80AF0CBFC10F10801F4
:1042E00080F09182E0070B9A9BF8E80118BF4FF02D
:1042F000FF320B92022877D10BF5DE7007912B9CD1
:10430000069001F059FDC1B208294FF0000004BF2A
:10431000DBF8C411002968D1DDE90E107422CDE963
:1043200049940DF043F94FF488600699ADF8B00157
:1043300049AA07986B900B98CDE969600D98ADF884
:10434000A2010A98ADF8A0015846FDF7FFFFC0B2E0
:10435000022840F0CB8095F85C20D5E91E10002A99
:1043600000F0F880D5E90A24089B099ED31A64EB73
:10437000060284EA060C544004EA0C04B4F1FF3F40
:1043800040F3E18183EAE27382EAE274B3EBE27321
:1043900064EBE272D5E920EC5FEA52024FEA3303A4
:1043A000CC1A70EB02043CBF19461046BEEB01026A
:1043B0007CEB00023CBF71466046089A099E891852
:1043C00046EB0002704086EA020323EA0000B0F1E7
:1043D000FF3F40F394814FF6583BC5E90812C2F203
:1043E000030BFEE0012021E600204FF0010C32E734
:1043F00000260024C5E922640A9CC5E92423059A05
:10440000C5E91C9932B102204FF0010C0B94012137
:10441000149120E7049C04F00602023AB2FA82F2F8
:1044200052098B1880F0E981099EB3F1FF3F40F3F8
:10443000E2800C9AA5F82E21039AC5E926260D9A4A
:104440001A44C5F80821EBB1AB69012B03D1EB6924
:10445000D31A012B0BDBD5E900360124C5E906424E
:10446000334304D10123C5E9030285E808129DF80E
:10447000A54004F006000238B0FA80F04009401868
:1044800080F0BB81DBF80C10284609F0DBFE002829
:1044900055D104F0060006990238B0FA80F04009C0
:1044A000401880F0AA81002849D0D5E90801DBE94D
:1044B000046408F07FFCD5F88020DFE802F00219E0
:1044C0000240321844EB010384EA010C84EA03063B
:1044D00026EA0C06B6F1FF3F40F311810126C5E93B
:1044E0002223C5E92069C5E9240128E001207CE7F1
:1044F000D5E92201301A74EB010020DBD5E9242331
:1045000084EA030CB01844EB030184EA010626EAAE
:104510000C06B6F1FF3F40F3F280B3F1FF3F40F3EA
:104520007E814FF000095B000126C5E9219005F16D
:104530008C0043EAD2735200C5F880600EC095F833
:10454000330108B9A5F81C91012014900A980B902A
:10455000FFF73EB8D5E90824089B099ED31A64EBFF
:10456000060284EA060C544004EA0C04B4F1FF3F4E
:1045700040F3E98083EAE27382EAE274B3EBE27328
:1045800064EBE27BD5E920EC5FEA5B094FEA330498
:104590000A1B70EB09023CBF214648465A1A7BEBC6
:1045A00000023CBF19465846BEEB01027CEB0002FC
:1045B0003CBF71466046089A099E891846EB000286
:1045C000704086EA020323EA0000B0F1FF3F40F3A7
:1045D00096804FF6583BC5E90612C2F2030B4FF026
:1045E00000090B98FFF7F6BB149800F001006DB0BE
:1045F000BDE8000FF0BD002001214D904A9144F22A
:10460000E041C0F201014C900420499144F248512C
:104610004B9049A8C0F2010104F07EFE42F298508E
:10462000C0F2010005F072FE42F2B850C0F2010083
:1046300005F06CFE012100204A9144F28C51C0F239
:1046400001014D9049914C90042044F294514B90BB
:1046500049A8C0F2010104F05FFE42F28850C0F2A6
:10466000010005F021FA42F6B01042F6C812C0F27D
:104670000100C0F20102162105F03FFD01204D941A
:104680004A9044F28C50C0F201004C944990DBE710
:1046900045F2B81045F22C22C0F20100C0F201022E
:1046A000222105F0BCF80D9945F21C2213E042F6D8
:1046B000302042F66422C0F20100C0F2010234212F
:1046C00005F0ADF842F67420C0F2010005F0ECF9F7
:1046D00045F21C221946C0F2010204F036FF46F2F0
:1046E0000C3040F21711C0F2010005F038FD46F21F
:1046F000234040F21B11C0F2010005F030FD44F6EA
:104700001070C0F2010005F0EEFD45F24810C0F255
:10471000010005F0FBFD44F27020C0F2010005F03D
:104720001BFE45F6C050C0F2010005F0EFFD44F25B
:104730006020C0F2010005F0FCFD44F63070C0F2CC
:10474000010005F0D0FD44F62070C0F2010005F034
:10475000DDFD05F027FE45F26810C0F2010005F00E
:10476000C2FD43F21850C0F2010005F0CFFD43F244
:104770002850C0F2010005F0C9FD45F2FC10C0F25E
:10478000010005F0C3FD45F20C20C0F2010005F068
:10479000AAFD45F2881202E045F288123046C0F2C6
:1047A000010204F09BFD45F23C20C0F2010005F03F
:1047B0009AFD42F62020C0F2010005F0A7FD42F666
:1047C0000020C0F2010005F08EFD42F2A850C0F2B8
:1047D000010005F088FD42F61020C0F2010005F04E
:1047E00095FD43F23850C0F2010005F07CFD43F224
:1047F0004850C0F2010005F076FD44F2EC70C0F2C2
:10480000010005F070FD43F25850C0F2010005F0C0
:104810006AFD44F68470C0F2010005F0B0FD44F674
:104820007470C0F2010005F084FD80B56F4645F656
:104830006370C721C0F2010005F091FCF0B503AF31
:104840002DE9000790B0D1E900A40D46D4F80C90F2
:1048500042F6E0118046C0F2010150460822C847E6
:1048600028B10126304610B0BDE80007F0BDA87A97
:10487000000633D443F2E1715046C0F20101012237
:104880000126C8470028EDD108F1840043F64743CC
:104890000B9040F6AB40C0F201000BA91622C0F20B
:1048A000010344F68926CDE90232CDE9041042F62F
:1048B000E01143F64043C0F20006C0F20101C0F22D
:1048C000010328460822CDE9008605F059FC00289E
:1048D000C7D1D5E900A0D0F80C904EE043F2E271C8
:1048E0005046C0F201010222C84701260028B9D172
:1048F000A7F12D0043F2BC72C0F2010243F6474318
:10490000CDE90840C0F20103D5E90201CDE90D016E
:1049100008F184000C9207AA0F9040F6AB400B926E
:104920001622C0F201000FA9CDE9023243F640433E
:10493000CDE9041042F6E01107F82D6C44F6892603
:104940000BA8C0F20006C0F20101C0F20103082268
:10495000CDF81CA0CDE9008605F012FC00287FF4FC
:1049600080AFDDE90B010222CB6843F2DC71C0F2BB
:104970000101984700287FF474AF45F67441504612
:10498000C0F201010122C84706466BE780B56F46B9
:1049900042F6D8120378D1E9000C43F25621C0F256
:1049A0000102C0F20101002B18BF11464FF00C02AA
:1049B000DCF80C3018BF0822BDE88040184780B5ED
:1049C0006F46D1E9000242F6D831D368C0F2010146
:1049D0000E22BDE88040184780B56F46082080BD94
:1049E00080B56F4680BD80B56F4680BD80B56F468F
:1049F000002080BD80B56F46002080BD80B56F4629
:104A000086B08A4238D203464FF4A87002FB00F108
:104A100002FB00305958426881F0050313430DD062
:104A2000023962F10002D1F102034FF0000C7CEB7D
:104A3000020201D3012914D106B080BD012100205A
:104A4000019142F69051C0F201010490009142F6AA
:104A50009851039004200290C0F20101684604F0CE
:104A60005BFC42F6A85042F6D452C0F20100C0F2FC
:104A70000102292105F041FB42F658531046C0F2CD
:104A800001031A4604F02AFCF0B503AF2DE9000F2C
:104A900089B0D0F80080B8F1FF3F73DD0C460546C1
:104AA000D1E900010122CB6843F20171C0F201019A
:104AB00098470646B8F1000F54D004350DF1140B99
:104AC0000020F10701D0012646E0A17AC0070906BF
:104AD00010D450B1D4E900010222CB6843F2D7715F
:104AE000C0F2010198470028EDD1284621460CF07C
:104AF00023F930E0D4E9009A50B9DAF80C3044F2E6
:104B0000F4314846C0F2010101220126984718BB42
:104B1000A7F12D0043F2BC72C0F20102CDF804905F
:104B2000CDE902A0012007F82D0CD4E90201CDE95E
:104B3000070128465946069201AA05920CF0FCF896
:104B40000028C0D1DDE905010222CB6843F2DC7107
:104B5000C0F20101984706460135B8F101084FF04F
:104B60000100AED10EB1012008E0D4E9000101221C
:104B7000CB6843F2E471C0F20101984709B0BDE887
:104B8000000FF0BD46F20C3040F21711C0F20100E8
:104B900005F0E5FAF0B503AF2DE9000F8DB04FF643
:104BA00058368146C2F20306D6F874540CF0B5FCB0
:104BB00080460CF0ABFC47F2500EC4F2020EDEF859
:104BC000B000C0071ED1DEF80801C00740F0948095
:104BD000DEF8040147F26C4CC4F2020CC0071FBFA0
:104BE0000020CEF804012A685FEAC27040F0F98024
:104BF000DEF8D800C00740F08C804FF0000B4FF07B
:104C0000000A05E100204146CEF8B0004FF001084F
:104C1000C80708BF0CF07CFC96F87A04032830D152
:104C2000B8F1000F4FF0000518BFB8F1030F00F006
:104C3000F2810CF072FC05460CF068FC4EF6004068
:104C4000C4F20600016811B949F275310160C02152
:104C5000416149F27531016047F26C40C4F20200D3
:104C60000021C0F8C010E80708BF0CF051FC96F80E
:104C70007B04042800F0E081042186F87A0486F899
:104C80007B140025DFE818F0C701050079006100FA
:104C9000C701B046D6F874440CF03FFC06460CF051
:104CA00035FC47F26C40A17FC4F202000022C0F83C
:104CB000A410E17FC0F8A8100121E37FCB40DB07FF
:104CC0001CBF00EB81035A6301310829F5D100258F
:104CD000F007A58308BF0CF01BFCD9E900014FF4D5
:104CE000806288F87C5488F878548969A8F87A2416
:104CF000A8F8EC5188478EE1DEF8B003C0051CD45B
:104D0000DEF8B003800500F1CB800020CEF808016A
:104D10005EE768684FF0000AB0F1014F76DACEF82E
:104D2000D8A04FF0010A68884FF0000BA98B00044F
:104D300021F00101A98328606AE04FF480704146A8
:104D4000CEF8B0034FF0030862E70CF0E6FB044630
:104D50000CF0DCFB47F26C400121C4F20200C0F809
:104D6000C010E00708BF0CF0D3FB96F87A0486F871
:104D70007B04032086F87A044DE14AEA0B0545EAF4
:104D80000406F00700F01A81E00740F091805FEA26
:104D9000CB7000F0DE8004A8FCF799FE0499BDF802
:104DA00014309DF81900DDF81660052808BF4FF093
:104DB000806606F07F40B0F1806F00F0CA80C6F3D5
:104DC0000720002800F0ED80802840F0F380079154
:104DD00007A94846CDF82260ADF8203000F044F92C
:104DE000E8E06968DCF8B4006FF3DF20A0EB124064
:104DF00080B20528FFF4FCAE0120CEF800004FF68B
:104E0000FF7022EA000069602860F1E64FF0010BB4
:104E1000DCF8002001230126072E01D1072403E03E
:104E2000202E80F01B81741C03FA06F01042B1B2F0
:104E300009D0CCF8000003FA01F1A88B4AEA010A74
:104E40008843A88301E003FA01F122FA06F0C003C7
:104E500048BF4BEA010B072E2646DDD1DEF80C01D8
:104E60004146C0070AD14BEA0A004FF65836C2F253
:104E70000306000410D14FF00008C9E6DEF8B001C7
:104E80004FF658364FF002080124C2F2030620F014
:104E90000400CEF8B001BBE64FF002080024B7E6EC
:104EA0004FF400704146CEF8B0034FF00408AFE66F
:104EB0004FF658308023C2F2030000F5FC7100F574
:104EC000047204A8FCF7D7FC9DF81000012840D01C
:104ED0000598812880F0BB8008283AD14FF65838D1
:104EE0000423C2F20308B8F8162298F810020392BD
:104EF000D8F81222029200F01F0298F81112042A28
:104F000028BF1A46C0F3411300F08000120401903C
:104F100042EA036241EA00201618FCF74DFB0198B3
:104F200098BBDDE9022318047AD098B2802810D803
:104F300094464FF65832C2F203020021C2E9A6108D
:104F40000720C2F8F461A2F8F231C2F8EEC1A2F86B
:104F5000EC015FEACA702DD0FCF752FEC00729D1E0
:104F6000C8071FBF4FF65830C2F2030090F87C0408
:104F700000281FD04FF658380120C2F2030888F8E5
:104F80007A04002088F87C0414E0039B0420029932
:104F9000C8F8F461A8F8F231C8F8EE11A8F8EC01ED
:104FA00007E70A910AA94846CDF82E60ADF82C30E3
:104FB00000F0F2F84FF6FE7005EA0006300425D046
:104FC000A0460125022404EA0800000401D028219B
:104FD00004E004EA0B00000405D02C21D9E900020A
:104FE00052582946904704EA0A00000405D0D9E93E
:104FF00000010A6B65F07F019047A643300405D09D
:10500000681C0F2D4FEA44040546DCD1D9E90001A4
:10501000C9698847012528460DB0BDE8000FF0BDDD
:105020004FF658310620C2F203010023A1F8EC012B
:10503000C1F89C321146BCE642F6436042F660621B
:10504000C0F20100C0F201021C2105F056F842F244
:1050500004728021C0F2010204F077FA43F64C603A
:10506000C0F2010005F08BF9F0B503AF4DF8048DE7
:1050700084B04FF658380D4604460026C2F20308A5
:10508000082E0FD0A0192A464168A0594B6A08F58E
:10509000F6719847B8F8EC01083600F00D000428C6
:1050A000EED00BE0687A68B1B8F8EC0100F00D00C2
:1050B000042803D108F5F670FCF73FFE04B05DF854
:1050C000048BF0BD297AA879F1B101290DD002290C
:1050D00008BF0028E8D1688800F08F0006F0C8FCFF
:1050E00027F8160CA7F1160033E0E8B10A28DBD147
:1050F0006D88FF2D2FD908F5F67004B05DF8048B8C
:10510000BDE8F040FCF719BEC8B1062811D0082848
:10511000CAD198F87A040238B0FA80F0400907F84A
:10512000130CA7F113002FE00020ADF8080002A82F
:105130000FE06A882046298800F0D6F827E098F822
:10514000780498F8791460F3410127F81A1CA7F144
:105150001A00022119E00026082E10D0A01941687B
:10516000A0594A6B294690470836C007F4D0A7F1EA
:10517000120007F8121C012101F09CFC9EE70020A0
:1051800007F8110CA7F11100012101F093FCC0B246
:1051900008283FF489AF91E7F0B503AF2DE9000B84
:1051A0004FF658390E4605460024C2F20309082C72
:1051B0000FD028193246416828590B6A09F5F67153
:1051C0009847B9F8EC01083400F00D000428EED03F
:1051D00007E0707A40B1B9F8EC0100F00D00042846
:1051E00063D0BDE8000BF0BD317AB079B6F800802D
:1051F00049B301290BD0022957D1012832D0032805
:1052000008BFB8F1000F50D1718801222FE00B28A0
:105210004BD1768846EA0800FF2846D80024082C9F
:105220004BD028194246416828598B6B3146984724
:1052300008340028F3D009F5F670BDE8000BBDE88E
:10524000F04001F072BC013808282ED8DFE800F0E9
:10525000052D1E2D162D2D2D2500B8F1010F24D161
:10526000002017E0B8F1000F1FD171880022D9F893
:10527000740401F08F0106F02EFC2CE0A8F101006F
:1052800080B27F2811D289F87C8424E0B8F1010F24
:105290000BD1012089F878041DE0B8F1000F14D07B
:1052A000B8F1010F01D1022013E009F5F670BDE855
:1052B000000BBDE8F040FCF740BDB8F1000F0AD08C
:1052C00009F5F670FCF739FD09E099F87A0410B198
:1052D000012089F87A0409F5F67001F026FCC0B2C5
:1052E00008283FF478AF7CE7F0B503AF2DE9000F55
:1052F00093B08246C1F3072002286BDC012800F03E
:105300008480022873D14FF65836C2F20306B6F8ED
:10531000EC01042840F0D382802496F87014109495
:1053200006F5047496F8712400200F94042496F86E
:105330007354002A0C944FF001048DF80E106FF096
:105340007F0196F872348DF8485002ADB6F8F281BC
:1053500011902A460D900B9418BF6FF03F018DF805
:105360000C004FF0807063F3451102900BA88DF88C
:105370000D10022107230BF0AEFFC1B2082940F047
:10538000F082DAE90001CA680BA99047C1B2082986
:1053900040F0E782109900200D900429C0F0FD82B2
:1053A0000F9911980231ADF808006A1A98BF4A1B8C
:1053B000012A40F2DA82088011988128C0F0D78152
:1053C0000920A6F8EC0106F5FC70FCF7DEF806F5FE
:1053D0000170A3E203285CD00F2808D14FF658399A
:1053E000C2F20309B9F86A04B0F5007F7ED14FF626
:1053F0005830C2F2030000F5F670FCF79EFCC1B213
:10540000082940F0AE820820ABE24FF65834C2F2D1
:105410000304B4F8EC01042840F051828023B4F86E
:10542000F261109304F504730F930023B4F8682419
:1054300044F62515B4F86614C0F29245B4F8640435
:1054400094F86FC494F86EE411938DF848300D937E
:105450000B93D4F86034AB4280F08F8294F86DB433
:10546000002B94F86CA4B4F86A94019600F02D8196
:10547000D4F8A032D4F8B052D4F8A862002B18BFE8
:105480000323002D18BF0125002E18BF012676002A
:105490001EE10E46080600F0A880F0B2154604286A
:1054A00080F002814FF6583244F62511C2F2030211
:1054B000C0F29241D2F860348B4280F05E82C3EB3E
:1054C000C30302F521719B00002B00F03E818E8EFC
:1054D0001C3B1C31ACB2A642F6D1012800F0588129
:1054E000022800F051810422084654E1B9F8EC0189
:1054F000042840F0E48100208021119046F220121F
:105500008DF84800C0F201020D9003230B90042097
:1055100003900120109109F5047102900BA80F91DE
:105520000F21B9F8F28104900BF0D5FEC1B2082921
:1055300040F0178210990529C0F054820F98017924
:105540000131CAB28A4240F0548201711198011DA2
:1055500080F05582CA1C80F0588210998A4200F26D
:10556000DF81884280F057820F990722431C0A543A
:1055700010998B4280F055820F991022CA54831CD7
:1055800010998B4280F054820F990222CA54C21C97
:1055900080F05582101D80F058821099884200F2E8
:1055A0000382811A042940F005820F99114442F2C6
:1055B0009022C0F201028B1A98BF531A032B40F2BB
:1055C000D48102AD00260E601190082E00F0878174
:1055D0000AEB060041685AF806000A692946904716
:1055E0000836C1B20829F0D0BBE102AC2021204628
:1055F0000CF0D6FB4FF6583844F62510C2F20308DB
:10560000C0F29240D8F860C4844580F0B681BCF105
:10561000100F614628BF1021BCF1000F18D00DF10A
:105620002C0E08F52E75A4EB0E03AEEB040235F834
:105630001C0BA6451646ADF82C0038BF1E46012EA1
:1056400040F2938124F8020B0233023A0139EED181
:10565000B8F8EC01042840F03281B8F8F24100209B
:1056600080214FEA4C03BCF1110F109108F5047131
:1056700011900F918DF848000D900B9080F085816E
:105680000BA802AA03210BF026FEC0B2082840F0A6
:1056900068811198812880F018810021844238BFE8
:1056A0002046C8E9A61044E10024082C3FF49FAE30
:1056B0000AEB04002A4641685AF804004B69314657
:1056C000984708340028F0D06AE00026002500231F
:1056D0008DF81220120A8DF80E00000A8DF816308F
:1056E00002238DF81010090A8DF8132002AA8DF8F4
:1056F0000F000BA84FF001088DF809308DF811103C
:10570000012110238DF817808DF815608DF8145045
:105710008DF80DC08DF80CE08DF80BB08DF80AA057
:105720008DF808900BF0D7FDC1B2082940F019811F
:10573000119881280ED30920A4F8EC0104F5FC701F
:10574000FBF723FF04F50170E8E002F5F670FCF7C3
:10575000F4FA06E1019A0021824238BF1046C4E9FA
:10576000A6100120A4F8EC0104F5F670F3E08045E2
:105770004FF0000138BF4046C6E9A6100120A6F848
:10578000EC0106F5F670E6E001F108000C2202E0FB
:1057900001F110001422006800283FF428AE895857
:1057A0004FF65838C2F20308B8F8EC21042A40F04A
:1057B00086800DF12C0B00EB010EABEB0801A8EB82
:1057C0000B03A1F21225B8F8F2114FF440720191C7
:1057D00040F212214FF0000CA8F81022A1F504723B
:1057E000BCF1000F02D04FF0000A56E0704568D0BF
:1057F000814619F9016BB6F1FF3F5FFA86FC2DDC9B
:10580000F14500F0ED8046780CF01F0A00F1020926
:10581000BCF1DF0F06F03F061BD9F14500F0E08038
:10582000847800F10309BCF1EF0F04F03F0444EA6F
:10583000861611D9F14500F0D380C47800F104092F
:1058400004F03F0444EA86160AF0070446EA844C52
:1058500004E046EA8A1C01E046EA0A3C8CF458401F
:105860004FF60004A0F50060C0F21004A04280F0E2
:10587000B0800020B0EB1C4F03D14FF0000A484627
:105880000BE00CF57F00372464F39F2C4FF4584451
:1058900044EA90244846E246A4467F2A40D808EBD2
:1058A0000102ADF82CC093452A4638BF5A18002A89
:1058B0005BD028F801C0023D0231D4468EE70720B4
:1058C0004FE0812A88F810222CD30920A8F8EC0197
:1058D00008F5FC70FBF759FE08F501701EE004980E
:1058E00000220292416903296CD90169A7F13E02A5
:1058F0008069023127F83E0C531A98BF8B1A012B8E
:1059000033D908801198812819D30920A9F8EC010E
:1059100009F5FC70FBF739FE09F50170FBF735FE60
:1059200002201EE001990020914238BF0A46C8E9D2
:10593000A6020120A8F8EC0108F5F6700BE08045FE
:105940004FF0000138BF4046C9E9A6100120A9F870
:10595000EC0109F5F670FCF78FF9C0B2082808BF12
:10596000082013B0BDE8000FF0BD46F2DD1040F294
:105970001B11C0F2010004F0F2FB46F20C3040F2C1
:105980001711C0F2010004F0EAFB42F274721846EB
:10599000C0F20102202103F0D8FD46F2F0020420FB
:1059A000C0F2010203F0D1FD46F2A412C0F20102DE
:1059B00003F0CBFD46F2B4120846C0F20102042106
:1059C00004F020FC46F2C4120420C0F2010203F0ED
:1059D000BCFD45F6B560AE21C0F2010004F0BFFB8E
:1059E000FEF723FF46F224120420C0F2010203F066
:1059F00075FC46F22410C0F2010004F074FC46F27B
:105A00003410C0F2010004F06EFC46F24410C0F203
:105A1000010004F068FC46F25412C0F2010203F0E7
:105A20005DFC46F264121846C0F2010203F056FC17
:105A300046F274121846C0F2010203F04FFC46F21F
:105A40008410C0F2010004F04EFC46F29410C0F243
:105A5000010004F048FC80B56F46027843F2A42CA4
:105A600042F69063C0F2010CC0F20103D1E9000ECE
:105A70005CF8221053F82220DEF80C30BDE880409C
:105A8000184780B56F4688B045F6BF22D1E900318E
:105A9000C0F20002CDE9000200200690012005902E
:105AA000684604900220039042F62C70C0F2010078
:105AB00002AA0290184603F0D7FE08B080BDD0B508
:105AC00002AF84B00C460190D1E900010522CB68F9
:105AD00043F27001C0F2010198478DF80C0041F2C9
:105AE00059100021C0F200008DF80D1043F275012D
:105AF000009002A801ABC0F201010522029404F05B
:105B000023F89DF80D209DF80C10012A42EA0100AF
:105B100008BF5FEAC17115D10298817A090608D4DD
:105B2000D0E900010222CB6843F2DF71C0F201012B
:105B300007E0D0E900010122CB6843F2DE71C0F238
:105B40000101984700F0010004B0D0BDF0B503AFEB
:105B50004DF804BD0446D0E96701884204BF94F8BB
:105B6000A4015FEAC0700AD042F6E87043F21C025A
:105B7000C0F20100C0F20102312103F050FED4E96D
:105B80004410884204BF94F818215FEAC27208D01A
:105B9000884201D9401A01E080293ED8B0F1FF3F88
:105BA00033DD04F19005002684F81861C4E94466E9
:105BB00094F8180198B928463146FCF742FB701C4E
:105BC00046B2B6F1FF3FF3DC94F8180190B1012022
:105BD0002146C4F8A80120465DF804BBF0BD42F69A
:105BE000B47043F26002C0F20100C0F2010222214F
:105BF00003F015FE43F22C0043F25002C0F2010004
:105C0000C0F20102212103F00AFE46F2234040F2D5
:105C10001B11C0F2010004F0A2FA42F63810C0F2E3
:105C2000010004F073FBF0B503AF2DE9000B84B065
:105C300006460BF072FC05460BF068FC06F58E700C
:105C4000FCF759FB8146E8070C4608BF0BF060FCE7
:105C50005FEAC9701BD064B2B4F1FF3F3BDD355D34
:105C60000BF05BFC80460BF051FC06F1880101A8AB
:105C7000BFF35F8FFBF7F7FE0199B9B1039AE2B367
:105C800001235470137002984968884717E00BF09D
:105C900044FC04460BF03AFCE007D6F8A85108BFD4
:105CA0000BF036FC002D18BF01250DE096F8180109
:105CB000012817D006F190002146FCF7C2FA5FEAEE
:105CC000C87001D10BF024FC89F00100294604B012
:105CD000BDE8000BF0BD45F60610D621C0F201006C
:105CE00004F03DFA42F6B47042F6D872C0F20100F8
:105CF000C0F20102222103F092FD44F2B100DD2145
:105D0000C0F2010004F02BFAD0B502AF82B0044615
:105D100040F23600C0F200000221ADF8040001A8F4
:105D200004F062FD46F2D47160B2C0F2010151F894
:105D300020000121007807F8090CA7F1090004F000
:105D400053FD02B0D0BDD0B502AF82B0044640F2E0
:105D50003300C0F200000221ADF8040001A804F0F5
:105D600043FD46F2F471E0B2C0F2010151F82000A7
:105D70000121007807F8090CA7F1090004F034FDAF
:105D800002B0D0BD80B56F46D1E9000243F2CA012E
:105D9000D368C0F201010E22BDE88040184780B5EB
:105DA0006F46D1E9000243F2BC01D368C0F20101A1
:105DB0000E22BDE880401847B0B502AF84B004465B
:105DC000806898B1616888423AD304F10C0C0FD115
:105DD00001A86146012200230025FBF709FC9DF87C
:105DE0000400A8B19DF8050098B926E0082025E038
:105DF000228A431A93420FD201A800931A462146E1
:105E00006346FBF724FA9DF8040078B9082010E0F7
:105E10000820C4E9015511E001A82146634600921B
:105E2000FBF715FA9DF80400012806D19DF805003E
:105E300018B100216160A16000E0002004B0B0BD95
:105E400042F2503042F28432C0F20100C0F201024C
:105E5000312103F0E4FCF0B503AF2DE9000782B077
:105E60000446006808B108201EE0A689E569A81963
:105E700080F01A81B0F5006F07D940F22B00C0F214
:105E8000000004F036FB02200EE0D4F814A0431BFF
:105E900004F1080168460AEB0502FBF7ECFC9DF8EB
:105EA000000028B19DF8010002B0BDE80007F0BD78
:105EB0000198B04204D940F22C00C0F20000E0E7A3
:105EC00015EB000880F0FA80B042C4F81C8004D1C1
:105ED000B8F5006F01D00020E6E7A06910F10C09C9
:105EE00080F0F280B9F5006F0AD940F22D00C0F2BF
:105EF000000004F0FEFA40F22F00C0F2000041E082
:105F0000A9EB000150440090684601910BF0D1FAD2
:105F1000006844F24E31C4F64D01884229D10199FE
:105F2000052940F2A48000980639019106300090BE
:105F3000684603F0C3F9C00720D00198002840F05C
:105F40009D8088B20C28C0F0C580C845C0F0A180F3
:105F5000A8EB090819EB080180F0B680B1F5006FD5
:105F600017D940F22D00C0F2000004F0C2FA072059
:105F700067E040F21600C0F2000003E040F21700B4
:105F8000C0F2000004F0B5FA0020C4E906000120C8
:105F90008AE70C3810F10C0280F0A280A1EB090610
:105FA000B24204D940F21800C0F2000046E00AEB09
:105FB0000901121A08440090684601920BF079FA20
:105FC000006844F24E31C3F24D1140F080708842B7
:105FD00026D1019903296DD9009804390191043023
:105FE0000090684603F06AF9C0071ED068460D4667
:105FF00003F064F9C0071DD028044FF0000018BF5B
:106000005FEA01421DD0A8B2B0F10C026ED388B293
:106010001118B14219D940F21C00C0F200000DE085
:1060200040F21900C0F2000008E040F21A00C0F28D
:10603000000003E040F21B00C0F2000004F059FA37
:1060400001200021C4E906112EE7424507D940F29C
:106050002E00C0F2000004F04CFA0220F1E719EB28
:10606000020149D20122A161C4E90020FBE646F207
:1060700044720620C0F2010203F044FA42F2E43016
:1060800042F20C42C0F20100C0F20102272103F0EB
:10609000C6FB42F2503042F28432C0F20100C0F23C
:1060A0000102312103F0BBFB42F23030C0F20100AB
:1060B00004F019F946F244720420DBE742F2403062
:1060C000C0F2010004F00FF942F21030C0F20100FA
:1060D00004F009F942F2D430C0F2010004F016F9DC
:1060E00042F2B430C0F2010004F0FDF842F2C430D4
:1060F000C0F2010004F00AF942F22030C0F20100BF
:1061000004F0F1F8F0B503AF2DE9000B88B0D1E948
:1061100000940D46D4F80C8043F26221C0F20101D4
:106120000F224846C04728B10126304608B0BDE8D6
:10613000000BF0BDA87A000612D443F2E171484684
:10614000C0F2010101220126C0470028EDD146F22C
:10615000DB112846C0F20101022203F019FA2EE0F9
:1061600043F2E2714846C0F201010222C047012613
:106170000028DAD1A7F1290043F2BC72C0F2010273
:1061800007F8296CCDE90140D5E90201CDE9060106
:1061900046F2DB1105926A4604A80492C0F201019E
:1061A0000222CDF8009003F0F3F90028BDD143F2AC
:1061B000DC716846C0F20101022203F052FD0028A2
:1061C000B3D145F674414846C0F201010122C047EF
:1061D0000646AAE7F0B503AF2DE9000F83B00C46E1
:1061E000117A012962D15688154690F872108E42B4
:1061F00006D140F21D00C0F2000004F069F93FE052
:1062000090F87100864225D1AE796D7A012D51D179
:10621000802E65D0852E4DD12088042846D104F1EA
:10622000240000904FF4006002A904260290684602
:106230000422E58801960BF005F90198002840F04A
:10624000C580012100202180042D38BF2E46C4E9DD
:106250002B06B7E040F21E00C0F2000004F038F94F
:1062600040F203000221C0F20000ADF800006846D1
:1062700004F0BAFA68460221ADF8006004F0B4FAFE
:10628000687A0BF009F840F202000221C0F2000027
:10629000AC79ADF80000684604F0A6FA8DF800402D
:1062A0006846012104F0A0FA04F046FA03B0BDE804
:1062B000000FF0BD40F21F00C0F2000004F008F92A
:1062C00028460AF0E9FF40F202000221C0F2000075
:1062D000ADF80000684604F087FA8DF80060DFE74B
:1062E00020880428E2D104F124006D4602A91C266E
:1062F000009028460222B4F806800196ADF80860A6
:106300000BF0A0F8012002A9ADF8080028460222EF
:106310000BF098F802A94FF4006928460422CDF842
:1063200008904FF0040B0BF08DF802A928460222CA
:10633000ADF808B00BF086F802A94FF0000A284625
:106340000222ADF808A00BF07DF802A9284602222F
:10635000ADF808B00BF076F802A928460222ADF895
:1063600008A00BF06FF802A928460422CDF8089087
:106370004FF001090BF066F802A928460222ADF899
:1063800008B00BF05FF802A928460222ADF808A079
:106390000BF058F802A928460222ADF808B00BF01D
:1063A00051F802A928460222ADF808900BF04AF8ED
:1063B0000198A0B9A4F80090B8F11C0F38BF464668
:1063C000C4E92BA62046FBF757FC6FE742F2847026
:1063D00042F2B072C0F20100C0F2010207E042F2E4
:1063E000847042F2C072C0F20100C0F201022B219F
:1063F00003F015FAD0B502AF82B00C4690F87310D6
:10640000E2B28A4205D1016EB1F1FF3F1DDD643079
:1064100019E040F22700C0F2000004F059F840F201
:1064200038000221C0F20000ADF8040001A804F019
:10643000DBF9A7F10900012107F8094C04F0D4F9B0
:1064400004F07AF9002002B0D0BD46F20C3040F2E0
:106450001711C0F2010003F082FEF0B503AF2DE981
:10646000000B82B00546107A012840F0DB8054888A
:10647000164695F87100884684421BD1747AB57926
:10648000012C08BF862D47D040F22200C0F2000048
:1064900004F01EF820460AF0FFFE40F2020002213E
:1064A000C0F20000ADF8040001A804F09DF98DF8D9
:1064B0000450A7E095F87200844267D1747A96F888
:1064C0000690002C40F08980B9F10B0F40F08580D8
:1064D0003088012800F0AA80002840F0B8804046AB
:1064E00000F023FB40F20D00C0F2000004F001F8C0
:1064F00040F21200C0F2000003F0FBFF0020032175
:10650000C5E91200A5F85C0085F870002860E96212
:10651000C5E90600286285E0D8F8B050812D80F0EA
:10652000B380042D75D308F124042068B0F5006F02
:1065300075D040F22000C0F2000003F0C9FF40F225
:10654000050001AEC0F200000221ADF804003046A3
:1065500004F04AF901A80421019504F045F940F23C
:1065600002000221C0F20000ADF8040001A804F00E
:106570003BF914F8010B01218DF80400304604F0BA
:1065800033F9013DF5D104F0D7F848E040F2250099
:10659000C0F2000003F09CFF40F203000221C0F2B1
:1065A0000000ADF8040001A804F01EF901A80221C2
:1065B000ADF8044004F018F9707A0AF06DFE40F26C
:1065C00002000221C0F20000B479ADF8040001A875
:1065D00004F00AF98DF8044014E040F22400C0F2FF
:1065E000000003F075FF20460AF056FE40F202005C
:1065F0000221C0F20000ADF8040001A804F0F4F894
:106600008DF8049001A8012104F0EEF804F094F84C
:1066100008E040F22100C0F2000003F06AFF4046AB
:1066200000F083FA02B0BDE8000BF0BD40F20E00AE
:10663000C0F2000003F05DFF012085F870004046C5
:1066400002B0BDE8000BBDE8F04000F06EBA40F2C9
:106650002300C0F2000003F03BFF40F202000221E1
:10666000C0F20000ADF8040001A804F0BDF80B2052
:1066700001218DF8040001A804F0B6F804F05CF8DC
:106680004046FBF75AFBCDE742F264722846C0F25F
:106690000102802102F059FFF0B503AF4DF804BDAF
:1066A000044690F83E00C9B281422BD1E06ADFE88F
:1066B00000F0021E0A1740F20F00C0F2000003F0C3
:1066C00018FF02201AE040F21100D4E90C56C0F283
:1066D000000003F00EFF012004F1200161C10FE072
:1066E00040F22600C0F2000003F003FF08E040F291
:1066F0001000C0F2000003F0FCFE012084F87000DE
:106700000320E0625DF804BBF0BDF0B503AF2DE9F6
:10671000000F87B00546087F95F871600C46012888
:1067200014D1002005AA8DF8190040F20220C0F211
:106730000D000B21CDF81500204606238DF81460BE
:106740000AF0C9FDC1B2082940F0298100200D21BD
:10675000CDE9001020463146002202230AF024FE33
:10676000C1B2082940F01B81D4F818A01AF1020028
:1067700080F07481D4F814B0584500F20F811AF5F6
:10678000807180F07181594528BF59468142C0F01F
:106790000A81091A0329C0F00181D4F8109003215D
:1067A0000DF11408069148440590002004A98DF8C5
:1067B0001000404601220AF045FE4FF4907004A9F3
:1067C000ADF81000404602220AF03CFE0698002870
:1067D00040F027810AF10508D84500F2DF8042F237
:1067E0000540C4F8188029F80A001AF1070080F063
:1067F0003581584500F2D28040F2051111EB0A01B3
:1068000080F03281594528BF59468142C0F0CB8083
:10681000091A0329C0F0C28095F872104844039108
:10682000032105900620069104A98DF8100005A803
:1068300001220AF007FE8DF8106005AE04A90122BE
:1068400030460AF0FFFD039804A98DF81000304689
:1068500001220AF0F7FD0698002840F0ED800AF1C9
:106860000A065E4500F29A8042F20540A66129F8C8
:1068700008001AF10C0080F0F180584500F28E807B
:106880001AF5857180F0F080594528BF594681423C
:10689000C0F08980091A0B29C0F0808095F8731028
:1068A000484402910B210DF11408069105900F2028
:1068B00004A98DF81000404601220AF0C3FD029899
:1068C00004A98DF81000404601220AF0BBFD00200B
:1068D00004A90490404604220AF0B4FD40F2EA50B4
:1068E00004A9ADF81000404602220AF0ABFD0020DA
:1068F00004A9ADF81000404602220AF0A3FD0020D2
:1069000004A98DF81000404601220AF09BFD06986C
:10691000002840F09A800AF11708D8453ED842F284
:106920000D40C4F8188029F806001AF1190080F00B
:106930009580584532D840F2171111EB0A0180F0CA
:106940009380594528BF594681422CD3091A0429FE
:1069500024D30421484405AE069105901A2004A9C9
:106960008DF81000304601220AF06CFD4FF4807063
:1069700004A9ADF81000304602220AF063FD0020A1
:1069800004A98DF81000304601220AF05BFD06983C
:1069900000286FD10AF11D0058450AD9022007B01E
:1069A000BDE8000FF0BD46F2B002C0F2010203F0F4
:1069B00077F842F20641A06129F8081005F1380184
:1069C0002046FBF70DFBC1B20829E8D14FF00108C2
:1069D0000026CDE900682046039900220A230AF028
:1069E000E3FCC1B20829DAD1CDE900682046039959
:1069F00001220A230AF0D8FCC1B20829CFD105F13F
:106A000050012046FBF7ECFAC1B20829C7D105F1C5
:106A10000801204607B0BDE8000FBDE8F040FBF7D5
:106A2000DFBA42F2F07042F63C02C0F20100C0F25E
:106A300001022A2102F0F3FE42F2F07042F62C022B
:106A4000C0F20100C0F20102F3E742F2F07042F638
:106A50004C02C0F20100C0F20102EAE746F29000E7
:106A6000C0F2010003F03FFC46F2A000C0F20100BA
:106A700003F039FC42F2F07042F61C02C0F2010051
:106A8000C0F20102D5E7D0B502AF044640F21200D1
:106A9000C0F2000003F02DFD00200321C4E9120024
:106AA000A4F85C0084F870002060E162C4E906008C
:106AB0002062D0BDF0B503AF4DF804BD0C460146D1
:106AC0004FF65830C2F20300B0F8EC01042820D190
:106AD0004FF65835C2F2030505F504700A1A98BF3F
